:100000000C9446000C945D000C945D000C945D0013
:100010000C945D000C945D000C945D000C945D00EC
:100020000C945D000C945D000C945D000C945D00DC
:100030000C945D000C945D000C945D000C945D00CC
:100040000C945D000C945D000C945D000C945D00BC
:100050000C945D000C945D000C945D000C945D00AC
:100060000C945D000C945D000C945D000C945D009C
:100070000C945D000C945D000C945D000C945D008C
:100080000C945D000C945D000C945D0011241FBE67
:10009000CFEFD0E4DEBFCDBF11E0A0E0B1E0ECE3F4
:1000A000F1E000E00BBF02C007900D92AE30B10747
:1000B000D9F70E9470000C949C000C940000CF9320
:1000C000C82F8A3019F48DE00E945F009091C00023
:1000D00095FFFCCFC093C60080E090E0CF910895DB
:1000E00011B88FEF82B987B918B820E080B19FEFBF
:1000F000980F9230A0F09DEF980F923090F09BEF08
:10010000980F923080F099EF980F933070F096EF3F
:10011000980F933060F08D50833058F00BC020E67C
:1001200009C020E707C028E305C02CE303C02EE385
:0C01300001C02FE328B9DACFF894FFCF0C
:0E013C0000000002000000005F000000000054
:00000001FF
